:020000041008E2
:4000000000780408F90208100D00000061030810610308106103081061030810000000000000000000000000000000005D0308105D030810000000005D0308105D0308104C
:400040005D0308105D0308105D0308105D0308105D0308105D0308105D0308105D0308105D0308105D0308105D0308105D0308105D0308105D0308105D0308105D03081000
:400080005D0308105D0308105D0308105D0308105D0308105D0308105D0308105D0308105D0308105D0308105D0308105D0308105D0308105D0308105D0308105D030810C0
:4000C0005D0308105D0308105D0308105D0308105D0308105D0308105D0308105D0308105D0308105D0308105D0308105D0308105D0308105D0308105D0308105D03081080
:400100005D0308105D0308105D0308105D0308105D0308105D0308105D0308105D0308105D0308105D0308105D0308105D0308105D0308105D0308105D0308105D0308103F
:400140005D0308105D0308105D0308105D0308105D0308105D0308105D0308105D0308105D0308105D0308105D0308105D0308105D0308105D0308105D0308105D030810FF
:400180005D0308105D0308105D0308105D0308105D0308105D0308105D0308105D0308105D0308105D0308105D0308105D0308105D0308105D0308105D0308105D030810BF
:4001C0005D0308105D0308105D0308105D0308105D0308105D0308105D0308105D0308105D0308105D0308105D0308105D0308105D0308105D0308105D0308105D0308107F
:400200005D0308105D0308105D0308105D0308105D0308105D0308105D0308105D0308105D0308105D0308105D0308105D0308105D0308105D0308105D0308105D0308103E
:400240005D0308105D0308105D0308105D0308105D0308105D0308105D0308105D0308105D0308105D0308105D0308105D0308105D0308105D0308105D0308105D030810FE
:400280005D0308105D0308105D03081010B5054C237833B9044B13B10448AFF300800123237010BDCC69020800000000DC8F0810084B10B51BB108490848AFF3008008487B
:4002C000036803B910BD074B002BFBD0BDE81040184700BF00000000D0690208DC8F081070460208000000007047EFF3108072B6704780F310887047FFF7F6FF72B6114CEF
:40030000114DAC4209DA21686268A368043BA2BFC858D050FAE70C34F3E70C490C4A00209142BCBF41F8040BFAE70A480A490860BFF34F8F00F02EFC00F008FC00F01EF862
:40034000FEE70000306E0910486E0910CC69020830D902080040020808ED00E0FEE7FEE700B504207146084202D0EFF3098001E0EFF30880043003F07DFBFEE710B562B614
:40038000414C424A4249204603F00AF8236843F00043236000F092F900F00AFB00F080F900F070FA00F0A0F93A49B1F8B2303A4A12681068181A0028B8BF4042374B18602D
:4003C000B1F8BC005468001B0028B8BF40425860B1F8C6009468001B0028B8BF40429860B1F8D000D468001B0028B8BF4042D860B1F8DA001469001B0028B8BF404218616B
:40040000B1F8E4005469001B0028B8BF40425861B1F8EE009469001B0028B8BF40429861B1F8F800D469001B0028B8BF4042D861B1F80201146A001B0028B8BF4042186281
:40044000B1F80C11526A8A1A002AB8BF52425A62002410E0114B53F82430B3F57A6F09D921460F4804F034FA0C4B53F824100D4804F02EFA0134092CECDD0A2003F0C6FAAC
:4004800000F0B8F890E700BF00006640F4D80208248A081088D702088C420208607402082C5808103458081038B514460D4601B122B940F22C51044803F0CCFA2246294613
:4004C000024802F0FFFD38BD3C5808100000664000B58BB08DF8241000218DF8251006AA0791089109AB06930223ADF81C30ADF8200001AB0491059107CA83E80700074B84
:400500001A88ADF812201B7813B140238DF8143001A803F0A5FD0BB05DF804FBE869020800B587B08DF807000E4B5B780E4AD35C13F0FF0F13D100230393049305930DF111
:40054000070302930123ADF80C300E23ADF81030044B1B88ADF8143002A810F013FD07B05DF804FBE8690208E4D8020808B50021024B99700F20FFF7ABFF08BDE8690208DD
:4005800008B503681978012904D8034B99700F20FFF79EFF08BD00BFE869020808B545F20103984211D003D8B0F5805F09D008BD45F2020398420CD045F20C0398420BD0E7
:4005C00008BD01220A4BDA7008BD0A88084B1A8008BDFFF7CBFF08BD0B890F2B02D10846FFF7CEFF024B186810F0DAFC08BD00BFE869020800B583B008F026FE254B1B889B
:40060000ADF80430C3F3072313B9234AD35C00E00023022B14D11F4B1B79022B04D002201C4B187100F08EF81A4B9B78012B2DD100F082F903784BB34078FFF771FF25E054
:40064000164B1B78022B09D1124B1B79012B1DD00120104B187100F075F817E00D4B1B79022B05D103200B4B187100F06BF804E00020084B187100F065F8064BDB782BB12B
:400680000020044BD870014603F02CFC03B05DF804FB00BFE8690208D4D80208D5D8020808B5024801F064F908BD00BF9D0508100122014BDA707047E869020808B519203F
:4006C00000F07CFA012000F081FA48B10021012000F088FA002000F079FA0122014B1A7008BD00BFED69020810B582B00F4B1868019000238DF8003002238DF801300C4B8F
:400700001B788BB10B4C01AA0B49204600F0B6FA6B460A4A0A49204600F0C8FA012302222146002000F080FA02B010BD7C580810ED6902088874020880580810BC4202081C
:40074000306F081003282FD8DFE800F028020E1B2022164B5A60802203F5C0639A60144B00221A705A7070472022104B9A60802203F5C0639A600E4B01221A7000225A70A6
:4007800070472022094B9A60802203F5C0635A60074B00221A7001225A7070472022034B9A600022024B1A70704700BF80003240EE690208124B1B787BB1114B9B7833B11E
:4007C0002022104B9A6000220D4B9A7005E020220C4B5A6001220A4B9A70094B5B786BB1074AD3780133DBB2D370052B06D913460022DA705A708022034B9A60704700BF43
:40080000EE690208800032408006324008B50B4B01229A619B690A4BB3F90030002B09DB5A0903F01F03012101FA03F36032054941F82230FFF7BEFF08BD00BF0002264063
:400840004881081000E100E008B50B4B5A6910225A615B69094BB3F90030002B09DB5A0903F01F03012101FA03F36032044941F82230FFF71DFF08BD0000324050810810E9
:4008800000E100E010B5254C2549204602F0F0FA01232362234C2449204601F055FFB4F90030002B08DB5A0903F01F000121814060321E4840F82210002B08DB590903F059
:4008C0001F03012202FA03F3184A42F82130134A536943F001035361002003F0AFF8144C1449204601F030FFB4F90030002B08DB5A0903F01F000121814060320B4840F873
:400900002210002B08DB590903F01F03012202FA03F3064A42F8213010BD00BF0002264058810810488108100D08081000E100E0508108104908081008B501F009FA08BB96
:4009400001F056F8002319E0092B08D1154A52F82320B2F57A6F02D9FF21134A1170114A52F82320B2F57A6F01D9013306E003EB830303EB83030C4A137001E0092BE3DDB8
:4009800001F01EFA084B5A791B789A4204D0064A53710123137102E00022034B1A71034808BD00BF60740208F4690208F869020808B501F00BF808BD704700BF5C4AD2F851
:4009C000803303F00F0303F1D00152F8212002F00702032A04D0042A05D092B9554914E0554A116811E003F1C002514951F8222002F01F02112A06D0132A04D04FF4FA417C
:400A000003E04E4901E04FF400418BBB484BD3F8902502F00100D3F88825C2F30172D3F8883513F0405F07D0414BD3F88835C3F30173012B02D102E0012300E0002303B1F0
:400A400008B9032A46D13A48D0F88025C2F31103D0F88425C2F30C02D0F88005C0F300600130B1FBF2F202FB03F2B2FBF0F131E0012B2FD12E4BD3F8402602F00100D3F83F
:400A80000026C2F30172D3F8003613F0405F07D0274BD3F80036C3F30173012B02D102E0012300E0002303B108B9032A12D12048D0F8002602F07F02D0F80036C3F30423A0
:400AC000D0F80006C0F3044002FB01F2B2FBF3F2B2FBF0F1164BD3F88033C3F3011321FA03F215494A601648D0F89030C3F3072301330069000E0130B2FBF0F08860B2FB9C
:400B0000F3F3CB600B6103F5742202F23F220D48A0FB0202C2F387420A7503F2E7330A4AA2FB03239B098B61DB03CB61704700BF0000264000127A009042020800366E01BB
:400B40000000214083DE1B43D34D621008B5104BD3F8802122F0404242F08042C3F88021D3F8802142F00042C3F88021D3F8802122F00102C3F88021FFF71EFFFFF71EFF1C
:400B800000F0DCFE00F0E2FE02F03AFE08BD00BF0000264008B5FFF7A8FB074AD2F8883043F47003C2F88830BFF34F8FBFF36F8FFFF79FFB08BD00BF00ED00E010B5044612
:400BC00000F04AF9204600F0EDF910BD08B510B100F082FD01E000F0A1FD08B9012008BD002008BD38B504460D4611B10120FFF7EDFF44B10321002000F000FA032100201B
:400C000000F0FCF909E044B9064C0321204600F0F5F90321204600F0F1F915B10020FFF7D5FF38BDFFFF0F10F8B507460E4614461D4613B10120FFF7C9FF24B93146384689
:400C400000F0EEFB15E0631EDBB2012B11D80021384600F0D3F9012C07D10121384600F0CDF90221304600F0C9F90321304600F0C5F915B10020FFF7A9FFF8BDF8B5074607
:400C80000E46154694780DE02A7804EB4410104480B26B789A1A92B23118384403F005FE0134A4B2EB789C42EED9F8BD2DE9F0478A4680E01D78167AB5426AD25E78577AC7
:400CC000BE4266D2177992F807E092F805C00EFB06C692F806C006EB461605FB0C653D44AFB2A4F12105EDB25D2D4ED8213C1EFB0CFE1EFB04FE1FFA8EFC4FF0000E23E00F
:400D00001FFA86F81FFA8EF404EB44153D444544ADB209FB04C44444A4B2917A21B111680C5DE443445503E011B911680C5D44550136F6B200E0002692F806904E45DFD335
:400D40000EF1010E5FFA8EFED479A645F3D320E006EB46143C442C44A4B292F80AE0BEF1000F04D04FF0FF0E00F804E003E04FF0000E00F804E00135EDB200E000259479D0
:400D8000A542E5D30136F6B200E00026D479A642F4D31C780134E4B21C70157AAC4204D300241C705C7801345C705D78547AA54206D80AF1010A9AF80040002C7FF47AAFE7
:400DC000BDE8F0872DE9F04180460E4615460F4C08276760702000F03BFD404600F038FDA7606760722000F033FD05E0771C307800F02EFD25463E466B1E9CB2002DF5D1F3
:400E00000822024B9A60BDE8F08100BF0006324000B583B002AB03F8011D01221946FFF7D1FF03B05DF804FBF8B507460E46094C08256560702000F00BFD384600F008FD67
:400E4000A5606560732000F003FD304600F030FDA560F8BD0006324038B50425084B5D60084C402363601023636000F0C1FC0822054B5A6065602023636000F0A3FC38BD9A
:400E800000003240800232400006324010B5434C6F220021204603F013FD631C236704F14E03636704F12203A36700F08BFC03E000F092FC042868D000F02EFD0028F7D161
:400EC00000F090FC00217220FFF7AEFF00F00F0002285CD14021FFF79BFF00210F20FFF7A3FF10F0800F54D002210B20FFF790FF08222B490120FFF765FFD1210720FFF743
:400F000087FF02210820FFF783FFC2210920FFF77FFF03210420FFF77BFF01210320FFF777FF00210320FFF773FF0A2002F06EFD002400E01C4601210520FFF769FF6420BD
:400F400002F064FD03210520FFF762FF322002F05DFD0F210520FFF75BFF322002F056FD00210F20FFF760FF10F0400F05D040210220FFF74DFF234603E0631C9BB2042CCE
:400F8000D8D1032B07D9052010BD012010BD022010BD032010BD002010BD00BFFC690208E880081010F1090F0EDB10F1040F0EDB05280FDD0A2810DD0F2811DD142811DD9A
:400FC000282811DC5A2210E04FF496620DE04FF461720AE04FF4167207E04FF4A57204E0DC2202E0B42200E03C22034BA3F87C20A3F87E20704700BFFC6902082DE9F84F3C
:4010000006460D46047828B1CA4B984205D10127002403E00127FF2400E0002700F0D2FB4FF00008D0E1C8EBC80AC8EB0A1ADFF80C930AEB090B6F220021584603F040FC67
:401040000BF1010EBC4BC3F870E00AF148004844063058670AF1200AD14409F10209C3F878902022002397E10FB934780136032D00F29081DFE815F004006500C6002701AF
:4010800000EB030C14F0400F01D0C02100E080218CF8001049B214F0100F02D04FF0300A01E04FF0200A4AEA01018CF8001014F0040F02D04FF00C0A01E04FF0080A4AEAFB
:4010C00001018CF8001014F0010F02D04FF0030A01E04FF0020A4AEA01018CF800100EEB020C14F0800F01D0032100E002218CF8001049B214F0200F02D04FF00C0A01E0D6
:401100004FF0080A4AEA01018CF8001014F0080F02D04FF0300A01E04FF0200A4AEA01018CF80010013A92B214F0020F02D06FF03F0A01E06FF07F0A4AEA01018CF8001079
:4011400028E100EB030C14F0400F01D0802100E040218CF8001049B214F0100F02D04FF0200A01E04FF0100A4AEA01018CF8001014F0040F02D04FF0080A01E04FF0040A0D
:401180004AEA01018CF8001014F0010F02D04FF0020A01E04FF0010A4AEA01018CF800100EEB020C14F0800F01D0022100E001218CF8001049B214F0200F02D04FF0080ACA
:4011C00001E04FF0040A4AEA01018CF8001014F0080F02D04FF0200A01E04FF0100A4AEA01018CF80010013A92B214F0020F02D06FF07F0A01E04FF0400A4AEA01018CF82B
:401200000010C7E000EB030C14F0400F01D0C02100E040218CF8001049B214F0100F02D04FF0300A01E04FF0100A4AEA01018CF8001014F0040F02D04FF00C0A01E04FF058
:40124000040A4AEA01018CF8001014F0010F02D04FF0030A01E04FF0010A4AEA01018CF800100EEB020C14F0800F01D0032100E001218CF8001049B214F0200F02D04FF00B
:401280000C0A01E04FF0040A4AEA01018CF8001014F0080F02D04FF0300A01E04FF0100A4AEA01018CF80010013A92B214F0020F02D06FF03F0A01E04FF0400A4AEA010108
:4012C0008CF8001066E000EB030C14F0400F01D0802100E0C0218CF8001049B214F0100F02D04FF0200A01E04FF0300A4AEA01018CF8001014F0040F02D04FF0080A01E068
:401300004FF00C0A4AEA01018CF8001014F0010F02D04FF0020A01E04FF0030A4AEA01018CF800100EEB020C14F0800F08D0022107E000BFFFFF0F10FC690208388B0208D2
:4013400003218CF8001049B214F0200F02D04FF0080A01E04FF00C0A4AEA01018CF8001014F0080F02D04FF0200A01E04FF0300A4AEA01018CF80010013A92B214F0020F56
:4013800002D06FF07F0A01E06FF03F0A4AEA01018CF8001001339BB2202B7FF665AEC8F1AF031BB299101A4A134003D5013B63F003030133174A02FA83F31B7A09F80130F9
:4013C00008F101081FFA88F8B8F1AF0F7FF62BAE00240FE0C4EBC403C4EB03136F220E4919440A20FFF7EEFC07210220FFF710FD0134A4B2AF2CEDD9084BB3F87C4000F0DD
:40140000EBF98442E4D800F0EDF9BDE8F88F00BF03000080E8800810388B0208FC6902082DE9F04706460D4600F0CCF9D2210920FFF7EEFC0024C6E0C4EBC407C4EB071798
:40144000DFF8008207EB08096F220021484603F037FA09F1010C784BC3F870C007F1480EC6440EF1060EC3F874E02037B84408F10208C3F87880202000218EE0771C327868
:401480006E1C95F800900EEB010582EA090212F0400F04D019F0400F03D0802302E0402300E0C0232B705BB212F0100F05D019F0100F05D04FF0200A04E04FF0100A01E0F2
:4014C0004FF0300A4AEA03032B7012F0040F05D019F0040F05D04FF0080A04E04FF0040A01E04FF00C0A4AEA03032B7012F0010F05D019F0010F05D04FF0020A04E04FF0F3
:40150000010A01E04FF0030A4AEA03032B700CEB000512F0800F04D019F0800F03D0022302E0012300E003232B705BB212F0200F05D019F0200F05D04FF0080A04E04FF072
:40154000040A01E04FF00C0A4AEA03032B7012F0080F05D019F0080F05D04FF0200A04E04FF0100A01E04FF0300A4AEA03032B70013880B212F0020F05D019F0020F04D059
:401580006FF07F0203E0402201E06FF03F0213432B70013189B235463E4620297FF66EAFC4F1AF031BB29910244A134003D5013B63F003030133224A02FA83F31B7A08F89B
:4015C00001300134A4B2AF2C7FF636AF002421E0C4EBC405C4EB05151A4B1D446F2229460A20FFF7EFFB07210220FFF711FCC4F1AF0343F38D032B44002283F822206F226B
:4016000029460A20FFF7DEFB07210220FFF700FC0134A4B2AF2CDBD9074BB3F87E4000F0DBF88442D2D800F0DDF8C2210920FFF7EFFBBDE8F08700BFFC6902080300008080
:40164000E8800810388B0208002307E01349086F5522C254496FCA5401339BB2202BF5D970B5002416E0A6080C4DAA6F04F003030B490B441B7A93556F2229460A20FFF7AA
:40168000A1FB07210220FFF7C3FBAB6F00229A550134A4B2AF2CE6D970BD00BFFC690208E880081008B5002304E00021094AD1540133DBB2152BF8D900210420FFF7A8FB58
:4016C0006F2204490A20FFF77DFB07210220FFF79FFB08BDFC69020838B50E4C1023A360142002F093F900F09BF808220A4B9A604023A3600425A5600A2002F087F9656046
:401700000A2002F083F9A5600A2002F07FF9FFF7BDFB38BD800232400006324038B5FFF793FFFFF7BFFF1E2002F070F9234C40256560322002F06AF9A56000210F20FFF71C
:4017400073FB10F0400F36D000210B20FFF760FB01210320FFF75CFB03210520FFF758FB01210520FFF754FB322002F04FF980210420FFF74DFB00210520FFF749FB012128
:401780000720FFF745FB1E2002F040F900F056F8102363606560142002F038F90822084B5A60042363602025A5601E2002F02EF96560002038BD042038BD00BF80023240AB
:4017C0000006324008B50022024BC3F8082100F081FF08BD00003840014BD3F808017047000038400122014B5A6070470000384010B5074C074A0849204601F079FC2368FC
:4018000043F0004323600822044B9A6010BD00BF00006740ACD8020850850810000632400822044B9A60044A136843F000431360704700BF000632400000674008B5024954
:40184000024801F09BFD08BDACD802080000674008B50146154801F005FC144BD3F8C03F13F0040FF9D0114BD3F8042242F48032C3F80422D3F8042222F48032C3F8042290
:40188000D3F80422D3F8042342F48032C3F80423D3F8042322F48032C3F80423D3F804230422C3F8C02FD3F8C03F08BD0000674008B50146174801F0D5FB164BD3F8C03F98
:4018C00013F0040FF9D0134BD3F84003D3F8042242F48032C3F80422D3F8042222F48032C3F80422D3F80422D3F8042342F48032C3F80423D3F8042322F48032C3F8042300
:40190000D3F804230422C3F8C02FD3F8C03FC0B208BD00BF00006740044B1B6913F0080F01D0012070470020704700BF8002324008B5012001F022FA08BD00BF08B5002210
:401940001146042000F08AFF08BD00BF10B5064801F040F802F0E9F80446044801F0A6F8204602F0E6F810BD7C6A0208F480081088B108B5094AD062094B1B7833B9104698
:4019800002F060F90122064B1A7000E0002020B902F07CF908BD0348704708BDC8420208FC6B02080100160008B5074B1B7833B900F0F8F800F018F90122034B1A7000F01C
:4019C00039F800F0B7FA08BD046C020810B5FFF7EBFF044610B900F0F3F9044600F0B8F90028FBD100F00AF900F052F9204610BD70B50E4D0026344614E0630904330C4AF5
:401A000052F8233004F01F02D34013F0010F07D0284600F047F806462946204600F090F81C350134092CE8D9304670BDA483081088D7020870B500230AE0124A191D02EB49
:401A40008100002444604FF0FF3042F821000133002BF2D00C4C0A230FE06668A27E094B2B4400211976012A05D1206918B1228BF17902F025FF1C342B465D1E002BECD1BA
:401A800070BD00BF88D70208A483081030B40B884A889C1A0025CD800079844200DDCC8030BC70472DE9F84307468468466890F81A900025A8460BE04A462146304600F051
:401AC000FDF8804621463046FFF7E0FF0A3401353B8B9D42F0D34046BDE8F883F0B50C8B8D684F680A69012324E010EA030403D17E88B979314402E07988BE79891BEE88BE
:401B0000B14201D3002100E01946A14202D01678013E1670A14201D014783CB920EA0300084309B9F97900E0012111705B000A350132744604F1FF3E002CD6D1F0BD00BF3A
:401B400038B504468A7E154B03441D7E012A04D12846FFF7C3FF054604E040F22641104801F078FF0D4B23441D76620904F01F04012303FA04F445B90432084B03EB820250
:401B8000536823EA0404546038BD0432034B03EB820253681C43546038BD00BF88D70208E882081010B50E4C4FF48E720021204602F086FE4FF65C4323804FF410636380CA
:401BC00040F63543A3800A236384022384F824308C22044904F1260002F067FE10BD00BF88D70208188308100023024AD380024A1360704788D70208306C0208704700BF39
:401C0000C9B2062902D083180021197130F8121000EB42035980024400231372704700BF70B506460D46012305E0224629463046FFF7E6FF23465C1E002BF6D170BD00BF75
:401C400070B5084DC3001A1A940022462C44A66801EB81014C002A44917E3019FFF7E0FF70BD00BFA483081038B50546C0EBC0029300064A13441B8B04E021462846FFF7C5
:401C8000DFFF23465C1E002BF7D138BDA483081010B50A2303E02046FFF7E6FF23465C1E002BF8D110BD00BF00FA03F3C2F5807001FB00F102FB0310000A70472DE9F04127
:401CC00007460D461646012338E035F8140005EB44035988884207D3421A2B194FF0000E83F808E0012301E00A1A00238BB97B799A420ED92B191B7A3A7A934205D3224676
:401D000031462846FFF77CFF17E02A190133137213E0F3B2062B10D005EB040898F804E0082301224EEA0121FFF7BEFFC0F30F2205EB44035A8088F8040023465C1E002B5F
:401D4000C3D10020BDE8F08100230B73704700BF024BD86800F08000704700BF88D7020810B50F4BDB6813F4803F0ED109280ED8430904330A4A52F8233000F01F02D340F0
:401D800013F0010F05D1012404E0112402E0012400E000240CB900F073FC204610BD00BF88D7020808B5054BDB6813F4803F03D100F0B6FB002008BD112008BD88D70208A3
:401DC000124BDB6813F0800F1AD110B500244FF0FF3312E02046FFF7C3FF034660B9082C03D801220A4B1A7002E00022084B1A70FFF7D8FF034606E00134092CEAD902E0FD
:401E0000112318467047184610BD00BF88D70208346C020830B583B00025074C08E02179002300930E22206801F010FD08340135092DF4D903B030BDBC84081010B51C4A46
:401E400053780133DBB253705078FFF789FF044650B9174B5B78DBB2092B02D10022144B1A70FFF79FFF1FE0114B5B78DBB2092B11D1104B1A8901321A81DA6822F080029F
:401E8000DA60DA6822F07F42DA60DA6842EA0064DC60002408E0074BDA6822F07F42DA60DA6842EA0062DA60002CC8D110BD00BF346C020888D7020810B50146124BB3F95B
:401EC0000030002B0DDB5A0903F01F03012404FA03F320320D4840F82230BFF34F8FBFF36F8F094C204600F02FFCB4F90030002B08DB590903F01F03012202FA03F3034A03
:401F000042F8213010BD00BF2881081000E100E010B5002409E0C4EBC4029300044A134459682046FFF710FF0134092CF3D910BDA483081008B5FFF7EBFFFFF76BFF00F02E
:401F40008DF9002008BD00BF70B5002514E0C5EBC50293000A4AD658002404E006EBC40000F02AFB0134C5EBC5029300044A13441B7E9C42F2D30135092DE8D970BD00BF62
:401F8000A483081010B50B4A536823F0F8535360094C80236360A36A23F0704343F0C043A362012001F04AFDA36A23F07043A36210BD00BF70003140800332400F4B1B78B3
:401FC000C3EBC3039A000E4B1A4453680D4AD2F8D02091B2188801238340013B994206D2094B1B680949097823F811207047064A12680649097822F811307047356C020893
:40200000A483081000003640A4D802080C85081010B5204B1B78C3EBC3039A001E4B1A44127E013A1D4B1B78DBB29A421AD91B4A13780133DBB2137016480378C3EBC30381
:402040009900154B19448C68137803EB830359002144134B19600078117800F09BFA00F0E1F910BD00220D4B1A700E4AD36823F48033D3600C4B1B78012B02D1FFF7DEFE16
:4020800010BD084BDA6822F08002DA601A8901321A8110BD356C0208A4830810366C0208A4D8020888D70208346C020810B50C4B1B78C3EBC3039A000A4B9B580A4A14789E
:4020C00003EBC404094B4FF483721A601B68FFF775FF204600F070FAFFF79AFF10BD00BF356C0208A4830810366C0208F000364001390843014B1860704700BF0002364029
:402100000F4B1B6823F4F8730E4A92F824100E4AB2FBF1F20D498A4204D843F02003084A136070470A498A4204D843F03003044A1360704743F04003014A1360704700BFEF
:402140000844020888D7020840787D01001BB70000366E01014A024B1A60704700008301000436400023164A136002F5927213600432136006212C3A11604FF48071083AAB
:4021800011600121903A1160A2F580724FF48371116012680B4A136003220B4B1A604FF47A7300E0013B094A126812F0040F01D1002BF7D113B90822034B1A60704700BFC2
:4021C0008C013640F800364040033640F00036401B4B4FF483721A601B681A4BB3F90030002B08DB590903F01F03012202FA03F3154A42F821300023144A13603032136026
:40220000043213602C3A13605021983A11600121643A11600C3A136002220D4B1A604FF47A7300E0013B0B4AD2F8842012F0070F01D0002BF6D140F20132074B1A607047B6
:40224000F00036402881081000E100E080023640F8003640000036404003364010B5FFF773FEFFF78FFE4FF480323B4B1A603B490B6843F080530B600023394A136002F5C5
:40228000E07213600C32136060321360A2F5CE72136002F582721360083A136031480360A2F5807213604FF0487402F5A87214602D4CA26A22F07042A262A4F58134A4F5BA
:4022C0008874626822F0F85242F08062626004F5A02404F50974226842F4805222604FF48074224A14600A6842F080520A604FF0807204390A6040F64134A1F58E710C6024
:4023000001F584710B600260FFF724FF184B93F82430013BFF2B09D81649D1F8002822F47F421B029BB21343C1F80038FFF7E8FE114B1B6843F0004343F480530F4A136064
:402340000F220F4B1A600022A3F588731A600A2203F590731A6010BD04023640A8023640F40036408402364080033240A002364088D7020800000140084402080000364036
:402380000003364010B5044601F0CFFB06490B6823F07F02054B1B7823445B7A13430B6001F0C7FB10BD00BF000436400C85081010B401228A40531E40B10F2904D9A2F187
:4023C0000A03B3FBF0F301E0B3FBF0F30BB9012000E018465DF8044B704700BF08B5094B1B78C3EBC3039A00074B1A44536859891B7B1804053B012B01D840F00070FFF704
:4024000077FE08BD356C0208A483081008B5027B01884089FFF7CCFF80B2014B186008BD1403364008B50D4BB3F90030002B0DDB5A0903F01F03012101FA03F320320849B1
:4024400041F82230BFF34F8FBFF36F8F0122054B1A60FFF787FEFFF7BBFE08BD2881081000E100E08001364008B5064AD36843F4803343F08003D360172001F0DFFAFFF72A
:40248000D1FF08BD88D70208F8B5054601F04DFB06462F682C79072C04D94FF464711F4801F0D8FAA400BA6A0F23A34022EA0301062202FA04F30B43BB622C682D79072D32
:4024C00004D940F24521154801F0C4FA04F13F4303F54E03DB0903F1806303F544331B01032D0BD81A68ED001F21A94022EA01010B2202FA05F50D431D600BE0043D5A68BE
:40250000ED001F21A94022EA01010B2202FA05F50D435D60304601F00CFBF8BD1085081070B5164E3378164CC3EBC3039A0022445068144D00232B703378C3EBC3039A00DD
:40254000224491682B7803EB83035A000A440E4B1A60FFF717FF3378C3EBC3039A00A358287803EBC000094B1860FFF78DFF0848FFF7A2FCFFF778FF70BD00BF356C020826
:40258000A4830810366C0208A4D80208A8D80208AD20081008B5C0EBC0008300044AD05800EBC100034B1860FFF76EFF08BD00BFA4830810A8D80208F8B5064601F0B5FA5F
:4025C000074634683579072D04D940F24521224801F040FA04F13F4303F54E03DB0903F1806303F544331B01032D08D81A68ED001F2101FA05F522EA05051D6008E0043D90
:402600005A68ED001F2101FA05F522EA05055D6035683479072C04D94FF464710E4801F019FAA400AA6A0F23A34022EA03010E2202FA04F30B43AB6235683479072C04D962
:4026400040F24731044801F005FA0123A3406B60384601F06EFAF8BD1085081008B5064B1B78012B06D1054B1868FFF7A5FF0022014B1A7008BD00BF376C0208A8D80208A8
:4026800070B5104DC0EBC00293002B445C68C0B20D4E3070FFF7E2FF3378C3EBC3039A00AA580A4B1A600A4BDA6822F07F02DA603178DA680A43DA602046FFF7A7FEFFF7CA
:4026C0008DFE70BDA4830810356C0208A8D8020888D7020808B5084B1B783BB9074A0021074800F037FC0122034B1A70044B01229A609A6108BD00BF386C02088485081015
:402700000000384038B50C4B9A680C4B9A420ED10D46044619B9FC21094801F09BF904F11003064A52F8230042F8235038BD1030044B53F8200038BD00ED00E000400208FA
:40274000D08508100000081070B338B504460D464368072B03D93621154801F07BF9B4F900306268002B08DB5201D2B203F1604303F5614383F8002305E003F00F035201BB
:40278000D2B20C49CA540C4B9A680C4B9A420DD11DB94521064801F05DF92946B4F90000FFF7B0FF002038BD05487047002038BDD085081014ED00E000ED00E00040020893
:4027C0000100560038B50369002B0DDA0D4604460B0C1B0423B140F2B321044801F03AF9A9B26160002038BD014838BD1486081001008A0038B50368002B01DA002300E0ED
:40280000094B73B90D460446C2600B0C1B0423B140F29A21054801F01DF9A9B2A160002038BD014838BD00BF01008A001486081038B504460D4619B99921064801F00AF90B
:402840002369002B03DAE3682B60002038BD024838BD00BF5486081001008A000F2840D8F8B515460E46044682B979B90F2804D940F2A911214801F0EDF8600100F18040AB
:4028800000F50C101E4B18600020F8BD5DB366B316F01F0F2BD10F2C04D940F2A911174801F0D8F8640104F1804404F50C14144F3C607E60BD60F2080021284602F000F830
:4028C00000212046FFF77EFF3A4652F8040B0021FFF790FF68B900213868FFF773FF50B9F8BD084870470748F8BD0648F8BD0548F8BD0548F8BD0448F8BD00BF9486081053
:402900003C6C020803018A0001018A002DE9F0411B4B1B68DC68236883422CD90D464609A0EB4610012303FA00F819B901F0FDF8074600E00027124B18680368002B01DA0C
:40294000002300E00F4B83B9626852F8263018EA030F05D023EA080342F82630002400E0094C0021FFF72EFF00E0084C25B9384601F0DFF800E0064C2046BDE8F08100BF61
:402980003C6C020801008A00020188000301880004018A000B4B1B68DB681A6882420CD94109A0EB4110012202FA00F05B6853F82130184203D004487047044870470448DA
:4029C000704700BF3C6C02080101880004018A0000018800024B1B680BB9014B18607047486C02082DE9F8430446884691461E46089F2A4B1B681BB9B421294801F02AF8D0
:402A0000072C03D9B521264801F024F8234B1B682C2000FB04F01C18F5B21D50C6F307236360360CA6600F2D04D940F2A9111D4801F010F86D0105F1804505F50C152561A7
:402A400065680F2D04D94FF4E271164801F002F8154B03EB45156561A668330C1B0423B14FF4F1710F4800F0F5FF330C1B0423B140F2E3110B4800F0EDFFB3B243EA06469E
:402A8000AE60C4F81C90C4F820800023A36117B1B7F90030A381BDE8F88300BF486C0208D48608109486081000102340F0B58FB0044618B950212C4800F0CCFFA369072BC0
:402AC00003D95421284800F0C5FFE36A1BB95621254800F0BFFFE368072B03D95721224800F0B8FF236A072B03D958211E4800F0B1FF236B1BB959211B4800F0ABFF07AE24
:402B000004F114050FCD0FC62F6802AD26460FCE0FC533682B60079B1933ADF83030089B0D93A26AE16A0CAD00953B460A98FFF759FF00210091069B0A460598FFF752FF7A
:402B4000216B2846FFF700FEBDF93030002B08DB590903F01F03012202FA03F3034A42F821300FB0F0BD00BFD486081000E100E0F8B506460F461D4614461AB9FD21264817
:402B800000F068FF254B1B681BB9FE21224800F061FF072E03D9FF211F4800F05BFF072F04D94FF480711C4800F054FF1B4B1B682C2101FB063001FB07314B68012202FAE0
:402BC00003F31B04466802FA06F60269EAB18F69EFB91268002A01DA002200E0104AC2B92288134323600369DC6001238B614D620469330C1B0423B140F29A21094800F067
:402C000029FFB2B2A2600020F8BD0748F8BD0748F8BD0648F8BD00BFD4860810486C020801008A009486081004028A0007028A00F8B505460F461646124B1B6823B940F2C0
:402C40006111114800F006FF072D04D94FF4B1710D4800F0FFFE0B4B1B682C2404FB0534236A23B94FF4B371074800F0F3FEE369B34204D9236A43F826700020F8BD0348DF
:402C8000F8BD00BF486C0208D48608100A028A0038B504460D460B4B1B6823B940F29311094800F0D7FE072C04D94FF4CA71064800F0D0FE034B1B682C2202FB0434A562BA
:402CC00038BD00BF486C0208D486081070B582B000230193044620B94FF4EA71264800F0B9FE236923B940F2D511234800F0B2FE636923B94FF4EB711F4800F0ABFE236AAD
:402D000023B940F2D7111C4800F0A4FE6369DD682A0C1CD012041A601B6820690369002B15DA01A9FFF784FD60B9019803681E0CDBB2E269934206D2226A52F8233013B178
:402D4000984700E0002631462069FFF73BFDADB275B16369ADB21D601B68636A1BB198470023636202E0A36A03B198470023A36163691B6802B070BDD486081010B50446D8
:402D80000B4B1B6823B94FF4DA710A4800F062FE072C04D940F2B511064800F05BFE044B1B682C2000FB0430FFF790FF10BD00BF486C0208D486081010B50446134B1B6811
:402DC00023B940F22D21124800F044FE072C04D940F22E210E4800F03DFE0C4B1B682C2202FB0434B4F90C30002B0DDB5A0903F01F03012101FA03F32032064941F82230C9
:402E0000BFF34F8FBFF36F8F002010BD486C0208D486081000E100E010B50446114B1B6823B940F24D21104800F014FE072C04D940F24E210C4800F00DFE0A4B1B682C228A
:402E400002FB0434B4F90C30002B08DB590903F01F03012202FA03F3044A42F82130002010BD00BF486C0208D486081000E100E0002867D038B50546002965D00B7A1BB1DE
:402E80000B88B3FA83F35B090C461BB12F212F4800F0E0FD637A1BB16388B3FA83F35B091BB13021294800F0D5FDA3791F2B03D93121264800F0CEFD2379032B03D9322125
:402EC000224800F0C7FD6379032B03D933211F4800F0C0FDE379032B03D934211B4800F0B9FD6288238843EA0243EB60A3791B0603F0F851E279130403F480330B43227AD1
:402F0000920002F004021343627A920202F480621343E27A12B14FF4006200E0002213436279120202F440721343A27A0AB1082200E000221343227902F0030213432B613D
:402F4000002038BD02487047014838BD148708100100D60000287DD00346002A7CD070B45068000280B29568AD0405F480252843D468240404F4403404431069000600F0F2
:402F8000E0602043147F0CB1012400E0002420430C1DA4011851D06828B903EB81100024C0F808410CE0012805D1146803EB8110C0F8084104E003EB81100124C0F808412E
:402FC000106938B9546903EB8110C0F80C419469C0F81041146803EB8110C0F81441906CB0F1FF3F17D0946A04F00F04166B360206F470663443956B2D0405F4702525432A
:40300000146C2403A4B22C430001C0B2204303EB8114C4F82001506A00F00300D66A360106F030063043556B2D0205F440752843D46BA401E4B20443506C800000F00C002A
:40304000204303EB8113C3F82401126AC3F83821002003E0024870470148704770BC70470100B600036813F4006F01D0802200E04022D0F80832C3F30803934203D0C0F8A4
:403080004012012070470020704700BF10B4D0F8003203F00F03072B06D900230DE0CC5CC0F84042013300E000239342F7D306E031F81340C0F8404201339342F8D35DF86F
:4030C000044B704710B51446036813F4006F01D0802200E04022D0F80832C3F30803D31AA34200D81C462246FFF7D0FF204610BD002800F03081F8B50546002900F02D815E
:403100000B78012B03D19948854200F02881087F18B19648854240F0248116460C46012B03D94C21924800F095FC6378012B07D9052B05D0022B03D04D218D4800F08AFCDE
:40314000A378032B03D94E21894800F083FC2378012B07D16368023B0E2B03D95021844800F078FCA36933F00F0303D05121804800F070FCA368043B0C2B03D952217C48E0
:4031800000F068FCE368043B0C2B03D95321784800F060FC6378022B07D0A268E3689A4203D05421724800F055FC636A33F06D0303D056216E4800F04DFCE36A33F07303CC
:4031C00003D057216A4800F045FC236B33F4206303D05821664800F03DFC6378A778052B07D8DFE803F0060305060603022700E00027A368082B04D8E368082B03D900239F
:4032000002E0002300E0012313B14FF4006200E00022217F11B14FF4807300E000231A436368013B03F00F03134343F080732B60236A2A6812F4006F01D0802200E04022C6
:40324000934203D365214A4800F004FCA36A2A6812F4006F01D0802200E04022934203D36621434800F0F6FB237D0BB9012100E000216278052A01D1022300E000230B435C
:40328000E17C09B1102100E000210B43617C09B1202100E000210B432178012902D14FF0004100E000210B43BF0007F00C073B43A169090201F470610B43120602F04072BF
:4032C00013432B62237C13B14FF4807200E00022A17C11B14FF4007300E000231A43A368013B03F00F031343C5F8003394F82030C5F80433237C13B14FF4807200E0002260
:40330000E368013B03F00F031343C5F8003294F82830C5F80432636A03F06D03C5F8C83FE36A03F07303C5F8883F236B03F40073C5F8003F236B03F40063C5F8403F00237C
:40334000C5F8C83E7EB118463360B361F360F361084B3362F8BD084870470748F8BD0648F8BD0548F8BD0020F8BD00BF0000694098870810EFCDAB000140AA00036823F0BE
:403380000043036019B100220A60CA608A61036A002B04DB0023C0F8C83FC0F8883F7047002800F0A98170B50546002900F0A6819E4B984200F0A48116460C460B78022B45
:4033C00003D942219A4800F045FB637B023BDBB2062B03D94321964800F03CFBA37B3BB1022B05D0032B03D04421914800F032FB94F82130012B03D945218D4800F02AFBC1
:4034000094F82830012B03D94621894800F022FB2378012B06D86368083B082B94BF0023012307E0A37F2BB16368013B062B94BF002301231BB148217D4800F00BFBA36829
:40344000053B042B03D94921794800F003FB6369FF2B03D94A21764800F0FCFAA369FF2B03D94B21724800F0F5FAA37C6BB1237833B9A368092B05D1A37B2BB1012304E017
:40348000012302E0012300E000231BB14D21684800F0E0FA636B23F4366323F00D031BB14F21634800F0D6FAE36B23F4EE6323F003031BB150215E4800F0CCFA2378022BB3
:4034C00001D1A37F13B163685A1E00E00022237F13B14FF4803100E00021A068082802D84FF4006300E00023194302F00F030B4343F000732B60236B2A6812F4006F01D074
:40350000802200E04022934203D36521484800F0A1FAA36B2A6812F4006F01D0802200E04022934203D36621414800F093FA636A2A6812F4006F01D0802200E040229342FB
:4035400003D367213A4800F085FA23781B0603F040732B64637F0BB1402200E00022A17C11B14FF4806300E000231343227C12B14FF4807200E000221343627C12B14FF4D9
:40358000007200E000221A43E36A013B1B0403F470231343627B013A02F007021343A27B120102F030021343AB64237B13B14FF4807200E00022E17B21B92378022B03D125
:4035C000012302E0012300E0002313B14FF4007300E000231A43A368013B03F00F031343C5F80033227DA3691B0403F47F031343C5F81033E26AD5F8003303F00F03033312
:403600009A4201D3102A03D97D21094800F022FAE37F23B12378012B03D0002302E0002300E0012333B14FF4807204E000006940188808100022637B013B03F007031A43D9
:40364000A37B1B0103F0300313436B64237B13B14FF4807200E00022A368013B03F00F0313432278012A02D14FF4803200E000221343C5F8003294F83030C5F8043394F84A
:40368000203013B14FF0007100E0002194F82120012A02D14FF0807300E000230B4394F82820012A02D14FF4803200E00022134394F8242013432B6594F83830C5F804323B
:4036C000636B23F4926323F002031B051B0DC5F8C83FE36B23F08C035B055B0DC5F8883F86B1002070603060B060F0603062F0623063054B736370BD04487047034870BD34
:40370000024870BD002070BDEFCDAB000160AA001F4B98422DD00CD840282ED003D8E8B1102828D02FE0802829D0B0F5807F28D029E0184B984228D006D8B0F1204F0DD0CF
:40374000154B984212D01EE0144B98420AD00133984209D0023B984215D101E0002070470F4870470F4870470F4870474FF4A0007047074870470D4870470D4870470D4849
:403780007047034870470C4870474FF4A400704706005200010000F0090000A0040000F0010052000200520003005200010050000200500005005200FF00520008B50C4B66
:4037C0001B69002B12DB0B4B1868FFF7A1FF0122094BC3F88C24084BD3F80C34002BFAD1054BD3F88C34002BF5D108BD034808BD200023404C6C02080000254002005000EE
:4038000000B583B05523ADF80030002301930C496846FEF799FFBDF90030002B08DB590903F01F03012202FA03F3064A42F82130022205490120FFF7FBF903B05DF804FB2D
:40384000F146020800E100E0C54602082DE9F04104460D46174698469DF81860072903D9D121344800F0F6F837F00F0303D0D221304800F0EFF8B8F1010F03D9D3212D4861
:4038800000F0E8F836F01F0303D0D421294800F0E1F822680123AB4022EA030308F0010808FA05F843EA08032360A36AA9000F228A4023EA020207F00F0303FA01F717436E
:4038C000A762072D04D940F245211B4800F0C2F836F01F0304D040F24621174800F0BAF804F13F4404F54E04E40904F1806404F544342401032D0DD82268ED001F23AB407B
:4039000022EA030306F01F0606FA05F51D432560BDE8F081043D6268ED001F23AB4022EA030306F01F0606FA05F51D436560BDE8F08100BF588808109888081038B50446B8
:4039400000F0F3F82CB1184B5B681F2B03D9002302E0002300E001231D460BB3E368E3B12368E3B1104B99680B46002203E0A34204D01A465B69002BF9D100E000257DB141
:4039800011B9094B9C6000E05461226100236361054A53680133536002E0002500E0002500F0C7F8284638BD5C6C020838B5044600F0BBF8144B5A680AB399680B4602E021
:4039C000A34204D05B69002BFAD1002500E00125B5B1A14206D14B695BB10B498B600021196106E019695C694C61596909B11B690B61013A044B5A6012B99A6000E000251B
:403A000000F097F8284638BD5C6C020810B5044605E0084B186800F07FF8A4F50044B4F5004FF6D8044B186800FB04F000F074F810BD00BFAC420208A842020808B5034B64
:403A40001B7800FB03F000F067F808BDA442020801BEFEE738B50D46044C18220146204600F04EFFA5610020FFF7F2FF104B0208FEE700BF08B50268254BDA6142681A625B
:403A800082685A62C2689A620269DA6242691A6382695A63C2699A631E4A916AD963D16A1964516A5964516B9964926BDA64F1EE103A13F0900F27D0026A154B1A65426A1F
:403AC0005A65826A9A65C26ADA65026B1A66426B5A66826B9A66C26BDA66026C1A67426C5A67826C9A67C26CDA67026DC3F88020426DC3F88420826DC3F88820C26DC3F82D
:403B00008C20026EC3F89020FFF7B2FF08BD00BF104B020800ED00E00230800803D001300238FCD100BF00BF7047EFF3108072B6704780F31088704710B50378012B02D056
:403B4000082B29D02EE01B4B1B78012B2CD00320FEF720FF184B984228D0FFF7E6FF174B1860022005F072FB044605F07AFB022C05D1032805D0052805D1002404E0104C26
:403B800002E0002400E00E4C0D4B9C420FD10B4B1868FFF7CEFF0AE0084B1868FFF7C9FF002404E0064C02E0054C00E0044C204610BD00BFD3D80208010188008C6C0208AB
:403BC000FF00420008B50378022B1CD0082B14D0012B1ED1124B1B78012B1CD0FFF7A5FF104B5860022005F031FB022815D00D4B5868FFF79EFF0C4808BD0A4B5868FFF72B
:403C000098FF002008BD074B5868FFF792FF064808BD054808BD044808BD002008BD00BFD3D802088C6C0208FF00420010B5044C2046FFF7BBFE04F11800FFF7B7FE10BDEE
:403C40001044020810B580B10A4A9060C36A03B1D3600024084B1C70084B1C70084B1C60084B1C7000F036F900E0074CFDF76EFE204610BD8C6C0208E0D80208E4D8020899
:403C8000E8D80208E5D802080100160010B590B02F4B0CAC186859689A68DB680FC42822002102A800F00CFE2A4B02930CAB049341F62863ADF8143004238DF81630FB22AB
:403CC000ADF82020ADF8222003228DF824208DF8253006238DF8263010238DF829304123ADF82A3001238DF82E301B4C2046FFF725FE04F11800FFF721FE05F0A3FA08A867
:403D000005F0FAFA034600BB144B039302A805F0BBFA0346B0B90122114B1A700023114A1370114A1370114B9B681A6A00929B6ADB88ADF804301223ADF8063068460DF042
:403D4000C9FF034600210A4A1160184610B010BDD88808108542081010440208A44B0208D3D80208D4D80208D5D802088C6C0208E8D8020808B5044B1B689847034B1B6886
:403D800003B1984708BD00BFB86C02089C6C020808B510B1034A52689047034B1B6803B1984708BDB86C02089C6C020870B5C0B006460C4615464FF480720849684600F035
:403DC00074FD05E016F8012B6A401DF80250013C002CF7D1284640B070BD00BFE888081008B5FFF7A2FE08BD08B5FFF7A2FE08BD08B50120FFF710F808BD00BF08B5FFF7DC
:403E0000F7FF08BD08B50120FEF7D6FF08BD00BF08B5FFF7F7FF08BD08B5094B58601960012208491046FEF703FF034628B9002205490120FEF7FCFE0346184608BD00BF55
:403E4000B86C0208913D0810753D081038B515460B46024601210020FEF78AFE044618B129460120FEF714FF204638BD704700BF704700BF002070470048704711001600D5
:403E800000487047110016000048704711001600004870471100160000487047110016000048704711001600004870471100160000487047110016000048704711001600D2
:403EC00000487047110016000048704711001600704700BF08B5024800F0C8FC08BD00BF04440208F8B5022872D8002972D10022134606E03B4CE45C012C01D90132D2B2FC
:403F00000133002BF6D0012A0CD1374B1B681C6801EB8102930023445B681B79023BDBB2012B59D8314B1B78002B57D1304B1970E0B92D4F3C68236801EB8105AA009D1869
:403F40006668C1EBC1014B001E44B18829822168114449686468E45A0C8039680C682244526849680B445B8853801EE001281CD11D4F3C68236801EB8105AA009D18666816
:403F8000C1EBC1014B001E44B1892982216811444D68616819440989298039680C682244526849680B445B895380124B18700E4B1B6818680E4B1B7803EB83039A00104492
:403FC00009F09AFC034650B90121084A117006E0094B04E0084B02E0084B00E0084B1846F8BD00BFD4D80208946C0208D5D80208D2D80208E5D8020801001600020016001F
:40400000FF00160070B439B9144B1B681B689968CE7F00231D460EE0104B1B681B68D968CE7FF6E7CA5C52B10133CC5C1B2C01D0134400E00125B34201D2002DF2D05DB1A3
:4040400001338279CA54002204E0D4180134855C0D550132052AF8D970BC7047946C020870B504460DF050FE0546D0B90E4B1968086A228902EB82029300143B03445A6888
:4040800012F0007F0DD0E67B1B695A68CB69D21A06EB8606B318A28821680448184400F004FC284670BD00BF946C0208D8D8020830B587B002891A4B1B685B699B889A42D8
:4040C00029D1044601AB07C883E807000022ADF81020A289ADF8122040228DF814201846FFF7BEFF054680B923681B7803F002039BB22BB10B4B1B6821460B48984704E051
:40410000084B1B68214609489847094A137803F0FE03137000E00025284607B030BD00BF946C0208986C02080500010006000100E0D802084288531E9BB20F2B1AD8417893
:40414000D1B910B40F4B1868046A02EB82029300143B23445A6812F0007F0FD01B695A68C369D31A01EB81011944074B5B5A1380002004E0012070470120704700205DF8E0
:40418000044B7047946C0208D8D8020800B583B00023ADF804308389ADF800300389ADF8023012238DF80430084B1B7813F0010F09D129B18DF8051068460CF0C3FE02E08B
:4041C000C0680CF0EDFE03B05DF804FBE0D8020810B4044688B10023194606E0104A52F82320944200D1012101330D4A1279934206D20029F2D0002003E00021094800E085
:40420000002050B949B9064B1B792BB9044A42F823400133137100E003485DF8044B7047ECD80208010016000300160070B506460D460020044606E0084B53F824302946EE
:40424000304698470134054B1B799C4204D2044B1B7813F0010FEFD170BD00BFECD80208E0D8020883792BB100207047C25C32B9013300E00023052BF8D900207047012003
:40428000704700BF70B58AB004460D46BB4A137843F00103137044F20A03984200F0AF8136D842F20403984200F0D98014D841F20103984200F0FD8003D8B0F5805F65D09B
:4042C000A5E241F20203984200F0F68041F20303984200F02A819AE244F20603984200F0DC810AD843F21203984200F0AD8044F20403984200F02C8189E244F207039842D3
:4043000000F0808144F20803984200F0C2817EE245F20E03984200F067821BD845F20203984200F017820AD844F21003984200F0698145F20103984200F0EE8167E245F27E
:404340000303984200F01F8245F20C03984200F024825CE245F21403984200F04E820AD845F20F03984200F0428245F21003984200F040824BE245F21703984200F0408257
:4043800046F20103984200F0C48140E27C4B1E683046FFF767FF60B130460AF039FB784E00213068FFF72EFE01213068FFF72AFE37E0744B1868836A1B791BB34FF0B05659
:4043C00096F8041601F03F0396F8052602F03F0243EA821196F8033603F01F0341EA033296F8003603F07F0342EA4343026B1370644A1168096BC3F3072048701268126BF8
:404400001B0C93705F4E3368186B0AF001FB33680021186BFFF7F6FD33680121186BFFF7F1FD584B1B68986A02300AF0FDFD0023049305937F238DF8103004A80AF00CFB91
:404440000222514B1A70E2E100234F4A13704F4A13700A20FFF7DAFAFFF7E8FBD7E14C4B1B6813F0010F40F0D2810023ADF810308DF81230434E33689B6A93F900308DF85E
:40448000103004A80AF002FB33689B6A93F901308DF8103001238DF81130FF238DF8123004A80AF0F3FA3A4A136843F001031360ADE1FFF7BBFEAAE14978364B1B88ADF896
:4044C0001030002319E0344A32F81320ADF808209DF8092012B93148825C00E00022012A0AD92D4A12F81320914205D12A4A32F81330ADF8103002E00133002BE3D09DF81C
:404500001130FF2B05D104D14FF472712448FFF7A1FABDF81030ADF81C30ADF81830C3F3072329781F4AD15471E10B78002B40F06E810B7A33B91C4B0022DA809A801B4A6E
:404540001A604B600D4A137803F0FE0313705EE1CB78002B40F05B8149790E4B1B88ADF81030002333E00C4A32F81320ADF80C209DF80D20E2B90948825C1AE0E0D802085F
:4045800040440208946C0208D3D80208D5D80208E8D80208E8890810D0D80208D4D80208EC890810E4D80208D46C0208CC6902080022012A0AD99E4A12F81320914205D162
:4045C0009B4A32F81330ADF8103002E00133002BC9D09DF81130FF2B05D104D14FF472719448FFF737FABDF81030ADF82030ADF81030C3F3072301218F4AD15407E1FFF729
:4046000015FE04E12B78002B3FD1AB78012B02D100228A4B1A706978894B1B88ADF80C30002319E0824A32F81320ADF810209DF8112012B98348825C00E00022012A0AD964
:404640007B4A12F81320914205D1794A32F81330ADF80C3002E00133002BE3D09DF80D30FF2B05D104D14FF472717248FFF7F2F9BDF80C30ADF82430ADF80C30C3F3072377
:40468000FF2B02D0A978704AD15402226F4B1A70BDE002226D4B1A70B9E0FFF7C7FD6C4B1B7813F0010F00F0B280644B1B78012B03D10222614B1A70A9E0032B03D1002278
:4046C0005E4B1A70A3E0022B40F0A18000225B4B1A70604B1B685B685F4A1178C1EBC10203EB42039A79002A00F091809B88002B00F08D80594B1B78002B40F0888001202B
:40470000FFF7F0FB002840F0828001224B4B1A707DE0FFF78BFD7AE00B88ADF800309DF801301BB90221474AD15405E023B94FF461714048FFF78EF96A7829883C4B23F8DB
:4047400012106B780021464AD15429462046FFF76DFD5CE00B88ADF804309DF805301BB90021384AD15405E023B94FF461713148FFF770F96B7800212F4AD15429462046F6
:40478000FFF754FD43E00B88ADF810301723ADF8123004A80CF0E2FB39E00A89531E9BB20F2B13D98B89ADF81030ADF8122012238DF8143001238DF8153004A80CF0C2FBC0
:4047C000234A137803F0FE03137020E00846FFF76FFC014620B929462046FFF727FD01462846FFF7D3FC12E0FFF720FD0FE0FFF71DFD0CE0FFF71AFD09E0FFF717FD06E03C
:404800000846FFF797FC29462046FFF70FFD104B1B7813F0110F09D00D4A137803F0FE031370104B1B682946204698470AB070BDD0D80208EC890810CC6C0208D5D80208D6
:40484000E8890810D4D80208D06C0208D3D80208E0D80208946C0208D2D80208E5D80208E4D80208986C02080020704730B108B5034A10600348FFF7ABFC08BD0248704703
:40488000E06C0208694808100100160010B501390244904207D010F8013B11F8014FA342F7D0181B10BD002010BD10B5431E0A44914204D011F8014B03F8014FF8E710BD37
:4048C00002440346934202D003F8011BFAE770470FB40A4B13B51C6824B1A36913B9204600F062F805AB049AA1680193204600F06DF902B0BDE8104004B0704764460208A5
:4049000010B5034642B111F8014B03F8014B013A002CF7D11A4400E010BD934202D003F8014BFAE710BD0000014900F0A9B800BFBD540810002310B5044603604360836066
:4049400081814366C281036143618361194608225C30FFF7B5FF054B6362054BA362054BE362054B2462236310BD00BF5D5108107F510810B7510810DB51081070B56823F5
:404980004D1E5D430E4605F1740100F097F8044640B1002180E842000C30A06005F16802FFF78EFF204670BD836910B5044633BB8364C3640365124B124A1B68826298429D
:4049C00004BF0123836100F01FF86060204600F01BF8A060204600F017F80022E06004216068FFF7A7FF01220921A068FFF7A2FF02221221E068FFF79DFF0123A36110BD5A
:404A0000448F081029490810F8B51C4B1E68B369074613B93046FFF7C7FF4836B4687368013B04D4B4F90C507DB16834F8E733680BB13668F2E704213846FFF79FFF306030
:404A40000028F6D10C233B60F8BD4FF6FF73E3810123A38165662560A560656025616561A5610822294604F15C00FFF729FF6563A563A564E5642046F8BD00BF448F08100A
:404A80002DE9F8438046894600F14804002694B1A5686768013F0CD4AB89012B07D9B5F90E30013303D029464046C84706436835F0E72468EBE73046BDE8F88370B5CD1C76
:404AC00025F0030508350C2D38BF0C25002D064601DBA94202D90C23336046E000F0E0FD234B1C681A462146A1B10B685B1B0ED40B2B03D90B60CC18CD501EE08C420DBF3F
:404B000063684B686360136018BF0C4615E00C464968E9E7174C23681BB9304600F00EFB20602946304600F009FB431C18D0C41C24F00304A0420DD12560304600F0B1FDAB
:404B400004F10B00231D20F00700C31A0ED05A42E25070BD211A304600F0F0FA0130EBD10C233360304600F09CFD002070BD00BF58740208547402089368013B002B10B415
:404B8000936009DA9469A34202DBCBB20A2B03D15DF8044B00F026BB1368581C10601970C8B25DF8044B7047F8B506460F461446D518AC4208D03A4614F8011B3046FFF739
:404BC000DBFF431CF5D100E00020F8BD2DE9F04F9DB00C4617460393064618B183690BB9FFF7E2FE7F4B9C4201D1746808E07E4B9C4201D1B46803E07C4B9C4208BFF46801
:404C0000A38918070CD5236953B10023099320238DF8293030238DF82A30DFF8D4B144E02146304600F044FB0028EED04FF0FF30D5E0039A111D12680391002A80F28C8090
:404C4000524243F002000792049098F800302E2B00F08480032298F80010654800F0D0FC48B14023CBEB000003FA00F0049B1843049008F1010898F800105E488DF8281071
:404C8000062208F1010700F0BBFC002800F09580594B002B40F08880039B073323F0070308330393099B53440993B846454615F8013B1BB9B8EB07090FD003E0252BF9D01F
:404CC000A846F3E74B463A4621463046FFF76CFF01307FD0099B4B44099398F80030002B78D000234FF0FF3204930793059206938DF853301A930127052229783F4800F00B
:404D00007FFC05F10108049B38B13C4A801A07FA00F0184304904546EEE7D90644BF20228DF853201A0744BF2B228DF853202A782A2A3FF47EAF079A00210A20A846013526
:404D400098F80030303B092B03D800FB02320121F4E700293FF479AF079276E798F801302A2B0BD1039B1A1D1B680392002BB8BF4FF0FF3308F1020805936BE700230593B9
:404D800008F1010019460A258046013098F80020303A092A03D805FB01210123F4E7002B3FF458AF059155E703AB00932246144B04A93046AFF3008007E003AB0093224617
:404DC0000F4B04A9304600F093F8B0F1FF3F82467FF468AFA3895B063FF528AF09981DB0BDE8F08F488F0810688F0810888F0810AE8F0810B28F081000000000A88F081036
:404E0000A94B08102DE9F04791461F460A698B68DDF820809342B8BF1346C9F8003091F8432006460C4612B10133C9F800302368990642BFD9F800300233C9F8003025681B
:404E400015F0060510D104F1190A07E00123524639463046C04701301AD00135E368D9F800209B1A9D42F1DB94F843302268003318BF012392060FD5E1185A1C302081F832
:404E80004300224494F8451082F84310023303E04FF0FF30BDE8F08704F1430239463046C0470130F4D02268D9F80050E36802F00602042A08BF5D1B2269A3680CBF25EA01
:404EC000E57500259342C4BF9B1AED184FF000091A344D4509D00123224639463046C0470130D5D009F10109F3E70020BDE8F0872DE9F04317460A7E85B06E2A9846064683
:404F00000C460C9B01F1430E00F0AE8011D8632A22D009D8002A00F0BB80582A40F0CA8081F84520834955E0642A1ED0692A1CD0C0E0732A00F0B08009D86F2A2ED0702A34
:404F400040F0B8800A6842F020020A603EE0752A24D0782A3AD0ADE01A6801F14205111D1960136884F84230A8E021681A6811F0800F02D0111D196008E011F0400F02F11D
:404F80000401196002D0B2F9003000E01368002B3CDA2D225B4284F8432037E021681A6811F0800F02D0111D196007E011F0400F02F10401196001D0138800E01368227E25
:404FC0005C496F2A14BF0A2208221BE078225A4984F845202268186812F0800F00F104051D6003D1550601D5038800E00368D00744BF42F0200222601BB9226822F0200202
:4050000022601022002084F8430001E049490A226568A560002D08DB206820F0040020602BB9002D7DD175460CE0002B79D07546B3FBF2F002FB1033CB5C05F8013D034690
:405040000028F5D1082A0BD12368DA0708D5236962689A42DEBF302305F8013C05F1FF35C5EB0E0323612EE008681A68496910F0800F03D0101D1860136808E010F0400FB5
:4050800002F104001860136801D0198000E0196000232361754616E01A68111D1960156862680021284600F0ABFA08B1401B6060636804E004F1420584F842200123236112
:4050C000002384F84330CDF800803B4603AA21463046FFF797FE013002D14FF0FF3026E023692A4639463046C0470130F5D023689B0710D5002504F1190907E001234A4674
:4051000039463046C0470130E7D00135E368039A9B1A9D42F2DBE068039B9842B8BF184605E00B7884F8423004F142058AE705B0BDE8F083B98F0810CA8F081038B5064C97
:40514000002305460846236000F056FB431C02D1236803B12B6038BD2CD9020810B50C46B1F90E1000F0ECFA0028ABBF636DA3891B1823F48053ACBF6365A38110BD2DE915
:40518000F0411F468B89DB0505460C46164605D502230022B1F90E1000F0BAF9A389B4F90E1023F48053A38132463B462846BDE8F04100F06BB810B50C46B1F90E1000F0BC
:4051C000A7F9431CA38915BF606523F4805343F48053A38118BFA38110BDB1F90E1000F0D5B80000F8B50F461446064618B183690BB9FFF7D9FB224B9C4201D1746808E0FA
:40520000204B9C4201D1B46803E01F4B9C4208BFF468A369A360A3891A0709D523693BB123682069181A63699842FDB20FDB08E02146304600F03CF80028F1D04FF0FF3072
:40524000F8BD2146304600F039F90028F6D1A368013BA36023685A1C22601F706269431C934204D0A389DB0707D50A2D05D12146304600F023F90028E0D12846F8BD00BFC1
:40528000488F0810688F0810888F081038B5074C054608461146002222601A46FBF704F9431C02D1236803B12B6038BD2CD90208324B70B51D6806460C4625B1AB6913B923
:4052C0002846FFF771FB2E4B9C4201D16C6808E02C4B9C4201D1AC6803E02B4B9C4208BFEC68B4F90C309AB215071DD4D00602D4092232603AE0510712D5616B41B104F1B5
:405300004403994202D0304600F0CCF900236363A38923F02403A3810023636023692360A38943F00803A38123694BB9A38903F42073B3F5007F03D02146304600F01EF934
:40534000A28912F0010305D00023A36063695B42A36103E0920758BF6369A36023695BB9B4F90C3003F0800080B230B143F04003A3814FF0FF3070BD002070BD64460208ED
:40538000488F0810688F0810888F081038B5064C002305460846236000F006FA431C02D1236803B12B6038BD2CD902088A892DE9F041054610070C4659D44B68002B02DC5B
:4053C0000B6C002B17DDE66AAEB102F48052002392B22F682B600AB1606D15E0216A01232846B047411C0FD12B686BB11D2B01D0162B03D12F600020BDE8F081A38943F048
:405400004003A381BDE8F081A3895A0705D56368C01A636B0BB1236CC01A00230246E66A216A2846B047431CA38906D129681D293AD8214ACA40D60736D500226260D904DC
:405440002269226004D5421C01D12B6803B96065616B2F600029CED004F14403994202D0284600F01FF900206063BDE8F0810F69002FC0D093070E6808BF4B690F6018BF80
:405480000023C7EB06088B6002E00744C0EB0808B8F1000FAFDD43463A46216AA66A2846B0470028F1DCA38943F04003A3814FF0FF30BDE8F08100BF0100402038B50B6929
:4054C00005460C46DBB118B183690BB9FFF76CFA0C4B9C4201D16C6808E00B4B9C4201D1AC6803E0094B9C4208BFEC68B4F90C302BB121462846BDE83840FFF757BF0020BE
:4055000038BD00BF488F0810688F0810888F081038B5074C054608461146002222601A4600F05AF9431C02D1236803B12B6038BD2CD9020870B50E46B1F90E10002990B069
:4055400014461D4606DA00232B60B3891A060ED540230EE001AA00F005F90028F3DB029A02F47042A2F500535A425A412A604FF480630020236010B070BD00008B8973B5E0
:405580009E0705460C4610D401AB6A46FFF7D2FF009906462846FFF791FA68B9B4F90C309A0522D443F00203A38104F14703236023610123636118E00D4BAB62A38920609C
:4055C00043F08003A381009B6361019B20614BB1B4F90E10284600F0D7F818B1A38943F00103A381A0893043A08102B070BD00BF294908100000000000000000000000002C
:4056000001F0FF01102A2BDB10F0070F08D010F8013B013A8B422DD010F0070F42B3F6D1F0B441EA012141EA014122F007047FF000070023F0E80256083C85EA010586EAC3
:40564000010685FA47F5A3FA87F586FA47F6A5FA87F68EB9EED1F0BC01F0FF0102F0070232B110F8013B013A83EA010313B1F8D10020704701387047002D06BF3546033809
:40568000073815F0010F07D1013015F4807F02BF013015F4C03F0130F0BC0138704700BF7047704738B50546002946D051F8043C0C1F002BB8BFE418FFF7F2FF1F4A1368FD
:4056C000114613B96360146032E0A3420ED92268A018834204BF18685B68636004BF121822600C6024E0A24203D813465A68002AF9D118681918A1420BD121680144581847
:405700008242196014D1106852685A60014419600EE002D90C232B600AE021686018824204BF10685268626004BF091821605C602846BDE83840FFF7B4BF38BD58740208D4
:4057400038B5074C054608461146002222601A4600F04AF8431C02D1236803B12B6038BD2CD9020838B5074C0023054608461146236000F021F8431C02D1236803B12B60E8
:4057800038BD00BF2CD9020838B5064C002305460846236000F018F8431C02D1236803B12B6038BD2CD90208024B58221A604FF0FF3070472CD90208024B58221A604FF0B3
:4057C000FF3070472CD90208024B58221A600020704700BF2CD90208024B58221A604FF0FF3070472CD90208024B58221A604FF0FF3070472CD90208044A05491368002BA2
:4058000008BF0B4618441060184670475C74020830D90208F8B500BFF8BC08BC9E467047F8B500BFF8BC08BC9E4670472575203A200A000025750D0A0000000047656E6536
:4058400072617465645F536F757263655C50536F43365C70646C5C647269766572732F7065726970686572616C2F7363622F63795F7363625F756172742E6800002100B084
:40588000FFFFF07FFFFFFFFFFFFFFFFFFFFFFFFFFFFFFFFFFFFFFFFFFFFFFFFFFFFFFFFFFFFFFF8007FFFFFFFFFFFFFFFFFFFFFFFFFFFFFFFFFFFFFFFFFFFFFFFFFFFFFF2E
:4058C000FFFFFFFE0003FFFFFFFFFFFFFFFFFFFFFFFFFFFFFFFFFFFFFFFFFFFFFFFFFFFFFFFFFFFFF80000FFFFFFFFFFFFFFFFFFFFFFFFFFFFFFFFFFFFFFFFFFFFFFFFFFE9
:40590000FFFFFFFFFFF000007FFFFFFFFFFFFFFFFFFFFFFFFFFFFFFFFFFFFFFFFFFFFFFFFFFFFFFFFFFFF000003FFFFFFFFFFFFFFFFFFFFFFFFFFFFFFFFFFFFFFFFFFFFF01
:40594000FFFFFFFFFFFFFFE03C001FFFFFFFFFFFFFFFFFFFFFFFFFFFFFFFFFFFFFFFFFFFFFFFFFFFFFFFFFFFC1FF001FFFFFFFFFF03FFFFFCFFFCFFFFFFFFFFFFFFFF3FF80
:40598000FFFFFFFFFFFFFFFFFFCFFFFFFFFFE0E781F39FFFFFCFFFCEFFF9FFFE7FFFFE73FFFFFFFFFFFFFFFFFFFFFFFFFFEFFFE6679FF39FFFFFFFFFFCFFF9FFFE7FFFFE05
:4059C0007FFFFFFFFFFFFFFFFFFFFF83FFFFEFFFE6679FF39861CCCC89C84E7983C41099C41387078FFFFFFFFFFFFFFF80E1FF0FFFE6679FF399CCCCCC44CCCE79999E7313
:405A0000999A7333333FFFFFFFFFFFFFFF800F1C7FFFE0E783F039CCE1CCCCCCE4F9998E73999E7333331FFFFFFFFFFFFFFF8000B00FFFE6679FF3F9CCF3CCCCCCE4F99927
:405A4000C673999E7333338FFFFFFFFFFFFFFF8000600FFFE6679FF3F9CCE1CCCCCCE4F999E673999E733333CFFFFFFFFFFFFFFFC000C00FFFE6679FF3F9CCCCCCCCCCF184
:405A8000F999E673999A733333CFFFFFFFFFFFFFFFC001801FFFE0E081F3F9E1CCCCCCCE71F9998F13C1C71387331FFFFFFFFFFFFFFFE001001FFFFFFFFFFFFFFFFFFFFF80
:405AC000FFF1FFFFFFFFFFFFFFFFFFFFFFFFFFFFFFFFFFF00FFFFFFFFFFFFFFFFFFFFFFFFFFFF3FFFFFFFFFFFFFFFFFFFFFFFFFFFFFFFFFFFFFFFFFFFFFFFFFFFFFFFFFFFF
:405B0000FFFFFFC3FFFFFFFFFFFFFFFFFFFFFFFFFFFFFFFFFFF80000FFFFFFFFFFFFFFFFFFFFFFFFFFFFFFFFFFFFFFFFFFFFFFFFFFFFFFFFFFFFFC0001FFFFFFFFFFFFFFE6
:405B4000FFFFFFFFFFFFFFFFFFFFFFFFFFFFFFFFFFFFFFFFFFFFFFFF8007FFFFFFFFFFFFFFFFFFFFFFFFFFFFFFFFFFFFFFFFFFFFFFFFFFFFFFFFFFFFFFF07FFFFFFFFFFF6B
:405B8000FFFFFFFFFFFFFFFFFFFFFFFFFFFFFFFFFFFFFFFFFFFFFFFFFFFFFFFFFFFFFFFFFFFFFFFFFFFFFFFFFFFFFFFFFFFFFFFFFFFFFFFFFFFFFFFFFFFFFFFFFFFFFFFF25
:405BC000FFFFFFFFFFFFFFFFFFFFFFFFFFFFFFFFFFFFFFFFFFFFFFFFFFFFFFFFFFFFFFFFFFFFFFFFFFFFFFFFFFFFFFFFFFFFFFFFFFFFFFFFFFFFFFFFFFFFFFFFFFFFFFFFE5
:405C0000FFFFFFFFFFFFFFFFFFFFFFFFFFFFFFFFFFFFFFFFFFFFFFFFFFFFFFFFFFFFFFFFFFFFFFFFFFFFFFFFFFFFFFFFFFFFFFFFFFFFFFFFFFFFFFFFFFFFFFFFFFFFFFFFA4
:405C4000FFFFFFFFFFFFFFFFFFFFFFFFFFFFFFFFFFFFFFFFFFFFFFFFFFFFFFFFFFFFFFFFFFFFFFFFFFFFFFFFFFFFFFFFFFFFFFFFFFFFFFFFFFFFFFFFFFFFFFFFFFFFFFFF64
:406F0000FFFFFFFFFFFFFFFFFFFFFFFFFFFFFFFFFFFFFFFFFFFFFFFFFFFFFFFFFFFFFFFFFFFFFFFFFFFFFFFFFFFFFFFFFFFFFFFF312E204C454420696E6469636174696F59
:406F40006E733A2020202020202020202020202020204C454438284F72616E676529204F6E202D204164766572746973696E67202020204C454438284F72616E6765292038
:406F8000426C696E6B73202D20436F6E6E656374656420204C4544392852656429202020204F6E202D20446973636F6E6E6563746564202020202020202020202020202077
:406FC000202020202020202020202020202020202020202020322E20424C45206164766572746973657320666F72203230207365636F6E64732E20507265737320535732F5
:4070000020746F2072657374617274206164766572746973696E67202020202020202020202020202020202020202020202020202020202020202020332E20436F6E6E65D4
:407040006374207573696E67204379536D617274204D6F62696C65202F206465736B746F702061707020746F206576616C756174652074686520424C452020736572766997
:4070800063652E20526561642074686520636F6465206578616D706C65202020646F63756D656E7420666F72206D6F726520696E737472756374696F6E732E20000000007A
:4070C0000000018001800180018001800180018001800180000000000180000000000000000007E007E007E0000000000000000000000000000000000000000000000000D1
:4071000000000360036003601FF806C006C006C006C03FF00D800D800D80000000000000018007F00FB00D800D800F80078003C001E001F001B00DF00FC001800000000027
:4071400000003C306630666066C067803F0006F007980D981998319860F000000000000000000F8018C018C018C01F801E003F7867B063B061E038E01FF0000000000000DA
:407180000000038003800380038000000000000000000000000000000000000000000000000000C001800300030006000600060006000600060003000300018000C0000011
:4071C0000000060003000180018000C000C000C000C000C000C0018001800300060000000000000003000FC00FC007800FC000000000000000000000000000000000000002
:40720000000000000000000001800180018001801FF80180018001800180000000000000000000000000000000000000000000000000000000000300030003000600000020
:407240000000000000000000000000000000000007C00000000000000000000000000000000000000000000000000000000000000000000000000000030000000000000044
:407280000000003000300060006000C000C00180018003000300060006000C000C000000000007C00C60183018301830183018301830183018300C6007C00000000000005C
:4072C00000000180078001800180018001800180018001800180018007E0000000000000000007800CC018600060006000C00180030006000C0018001FE00000000000001E
:40730000000007C00C600C300030006007C000600030003000300C6007C0000000000000000000C001C001C003C006C00CC018C01FF000C000C000C001E0000000000000C5
:4073400000000FE00C000C000C000F8000C000600060006000600CC00780000000000000000007E00C30180018001FC01C6018301830183018300C6007C0000000000000D7
:4073800000000FF00060006000C000C00180018003000300060006000600000000000000000007E00E700C300C30076007C00DE01870183018301C6007C000000000000021
:4073C000000007C00C6018301830183018300C3007F00030003018601FC000000000000000000000000000000300000000000000000000000000000003000000000000004A
:4074000000000000000000000300000000000000000000000000000003000300060000000000000000000000003000E0018007001C000700018000E00030000000000000F1
:407440000000000000000000000000001FF0000000001FF0000000000000000000000000000000000000000018000E00030001C0006001C007000C001800000000000000B8
:4074800000000FC00C600060006000C00180030006000600000000000600000000000000000007E00C30181833EC666C6CEC6CCC6FD86FF0300018000FC0000000000000EA
:4074C00000000300070007800D800D800CC018C01FC0186030603030787800000000000000001FC00C600C300C300C600FC00C600C300C300C300C601FC00000000000009D
:40750000000007E00C70183030003000300030003000300018000C3007E000000000000000003FE018301818180C180C180C180C180C180C181818303FE00000000000003F
:4075400000001FE00C600C000C000CC00FC00CC00C000C000C000C601FE000000000000000001FE00C600C000C000CC00FC00CC00C000C000C000C001E000000000000005A
:40758000000007E00C70183030003000300030F83030303018300C3007E000000000000000003C3C18181818181818181FF8181818181818181818183C3C00000000000086
:4075C0000000078003000300030003000300030003000300030003000780000000000000000007C0018001800180018001800180018001800180018001801B001E000000D4
:4076000000003CF0186018C019801B001E001F00198018C0186018303CF800000000000000001E000C000C000C000C000C000C000C000C000C300C301FF000000000000073
:407640000000781C38383C383C383C783678367833D833D833983198783C000000000000000038781C301E301E301B301B3019B019B018F0187018703C300000000000006C
:40768000000007E00C301818300C300C300C300C300C300C18180C3007E000000000000000001FC00C600C300C300C300C600FC00C000C000C000C001E0000000000000034
:4076C000000007E00C301818300C300C300C300C300C300C18180C3007E0003C000F000000003F8018C018601860186018C01F80198018C0186018303C3800000000000016
:40770000000007C01C60186018000C00070001C000E0006018601CC00F8000000000000000007FE066600600060006000600060006000600060006000F0000000000000015
:4077400000003C781830183018301830183018301830183018300C6007C0000000000000000078F03060186018C018C018C00D800D800D80070007000700000000000000E6
:407780000000F31E630C678C378C379837D83CD83CD81CF01C701C70187000000000000000003E7818300C6006C006C00380038006C006C00C6018303CF800000000000071
:4077C00000003EF018600CC00CC00780078003000300030003000300078000000000000000001FF01830006000C000C001800300060006000C0018301FF00000000000007D
:40780000000003C003000300030003000300030003000300030003000300030003C0000000000C000C0006000600030003000180018000C000C000600060003000300000D2
:407840000000078001800180018001800180018001800180018001800180018007800000000003000300078007800FC00CC00CC01860186000000000000000000000000083
:4078800000000000000000000000000000000000000000000000000000000FE0000000000000038001C0000000000000000000000000000000000000000000000000000095
:4078C000000000000000000007800CC00CC000C007C01CC018C018C00FE000000000000000001C000C000C000FE00E300C180C180C180C180C180E300FE000000000000025
:40790000000000000000000003C006600C600C000C000C000C00066003C0000000000000000000F00030003007F00C70183018301830183018300C7007F8000000000000B3
:40794000000000000000000007C00C6018601FE01800180018000C6007C0000000000000000001F00330030007C00300030003000300030003000300078000000000000058
:4079800000000000000000000FF01CC018C018C01CC00F8018001FC01860306030E01F8000001C000C000C000FE00E300C300C300C300C300C300C301E78000000000000C4
:4079C0000000030000000000070003000300030003000300030003000780000000000000000000C00000000001C000C000C000C000C000C000C000C000C000C00CC00F8045
:407A000000001C000C000C000CF00CC00D800F000E000F000D800CC01E780000000000000000070003000300030003000300030003000300030003000780000000000000F6
:407A40000000000000000000FEF07398631863186318631863186318F7BC00000000000000000000000000001FE00E300C300C300C300C300C300C301E780000000000003D
:407A8000000000000000000007C00C60183018301830183018300C6007C000000000000000000000000000001FE00E300C180C180C180C180C180E300FE00C000C001E00A4
:407AC000000000000000000007F00C70183018301830183018300C7007F000300030007800000000000000000FE007600600060006000600060006000F00000000000000D7
:407B0000000000000000000007C00C600C600E0003C000E00C600E6007C0000000000000000000000300030007C0030003000300030003000300030001C0000000000000B1
:407B400000000000000000001C700C300C300C300C300C300C300C7007F800000000000000000000000000003EF00C600C6006C006C006C0038003800380000000000000B5
:407B800000000000000000007B3C3318379837981FB01EF01EF00CE00C6000000000000000000000000000001F700C6006C00380018003C006C00C601DF00000000000001B
:407BC00000000000000000003EF00C600C6006C006C006C0038003800300030006000E0000000000000000001FE0186000C00180030006000C0018601FE0000000000000C9
:407C0000018003000300030003000300030006000300030003000300030003000180000000000180018001800180018001800180018001800180018001800180018000000A
:407C4000060003000300030003000300030001800300030003000300030003000600000000000000000000000000000000000E301BB018E000000000000000000000000052
:407C8000001010101010000010000000006C48480000000000000000001414287C287C2850500000001038404038487010100000002050200C700814080000000000001810
:407CC000202054483400000000101010100000000000000000080810101010101008080000202010101010101020200000107C1028280000000000000000101010FE10109A
:407D00001000000000000000000000181030200000000000007C0000000000000000000000000030300000000004040808101020204000000038444444444444380000001F
:407D400000301010101010107C00000000384404081020447C000000003844041804044438000000000C141424447E040E000000003C20203804044438000000001C204083
:407D80007844444438000000007C4404080808101000000000384444384444443800000000384444443C04087000000000000030300000303000000000000018180000188B
:407DC0003020000000000C10608060100C000000000000007C007C00000000000000C02018041820C00000000000182404081000300000003844444C54544C40443800008B
:407E00000030102828287C44EE00000000F8444478444444F8000000003C4440404040443800000000F0484444444448F000000000FC445070504044FC000000007E22280C
:407E40003828202070000000003C4440404E44443800000000EE44447C444444EE000000007C1010101010107C000000003C0808084848483000000000EE444850704844BE
:407E8000E600000000702020202024247C00000000EE6C6C54544444EE00000000EE64645454544CEC00000000384444444444443800000000782424243820207000000086
:407EC0000038444444444444381C000000F8444444784844E200000000344C40380404645800000000FE9210101010103800000000EE4444444444443800000000EE4444AC
:407F0000282828101000000000EE4444545454542800000000C6442810102844C600000000EE44282810101038000000007C4408101020447C00000000382020202020208D
:407F4000202038000040202020101008080800000038080808080808080838000010102844000000000000000000000000000000000000FE0010080000000000000000005F
:407F800000000038443C44443E00000000C0405864444444F80000000000003C4440404438000000000C04344C4444443E00000000000038447C40403C000000001C207C41
:407FC000202020207C000000000000364C4444443C04380000C0405864444444EE00000000100070101010107C00000000100078080808080808700000C0405C4870504839
:40800000DC00000000301010101010107C000000000000E854545454FE000000000000D864444444EE000000000000384444444438000000000000D8644444447840E0000C
:40804000000000364C4444443C040E000000006C302020207C0000000000003C44380444780000000000207C202020221C000000000000CC4444444C36000000000000EE32
:408080004444282810000000000000EE4454545428000000000000CC48303048CC000000000000EE44242818101078000000007C481020447C0000000008101010102010A0
:4080C000101008000010101010101010101000000020101010100810101020000000000000245800000000000000007FFFFE0000C0300C0303000000010000000100000014
:408100000000000005036000040000000100000000000000010000000604600008000000DC6B02083119081031000000070000002F000000070000002E0000000700000009
:408140002C00000007000000130000000500000000000000040000000040008001001000010000000000030000001000010000280100000007000000001800000000000082
:40818000020003280100020003000000002A0000000000000300002A01000201030000000C00000010430208040003280100020005000000012A0000000000000500012A33
:4081C00001000201050000000200000018430208060003280100020007000000042A0000000000000700042A010002010700000008000000204302080800002801000000C0
:408200000B000000011800000000000009000328010020000B000000052A0000000000000A00052A000020010B00000004000000284302080B00022901010A030B0000005D
:4082400002000000304302080C000028010000081000000010000000384302080D000328010010001000000010000000404302080E00A1CA00001009100000000100000004
:40828000484302080F00022901010A030F0000000200000050430208100001290100020110000000120000005843020831019B5F8000008000100000B5CA030031019B5F43
:4082C0008000008000100000A1CA030001000300050007000000000008000A000B0000000C000E000F00100047656E6572617465645F536F757263655C50536F43365C43B5
:40830000617053656E73655F50726F63657373696E672E63000000001000C409C8C80A031E20100000001000C409C8C80A031E20100000001000C409C8C80A031E20100009
:4083400000001000C409C8C80A031E20100000001000C409C8C80A031E20100000001000C409C8C80A031E20100000001000C409C8C80A031E20100000001000C409C8C870
:408380000A031E20100000001000C409C8C80A031E20100000001000C409C8C80A031E2010000000BC840810AED702083AD80208000000002C6C0208012800000100010101
:4083C000C4840810BCD7020844D8020800000000286C02080128000001000101CC840810CAD702084ED8020800000000246C02080128000001000101D4840810D8D702085E
:4084000058D8020800000000206C02080128000001000101DC840810E6D7020862D80208000000001C6C02080128000001000101E4840810F4D702086CD80208000000005C
:40844000186C02080128000001000101EC84081002D8020876D8020800000000146C02080128000001000101F484081010D8020880D8020800000000106C02080128000035
:4084800001000101FC8408101ED802088AD80208000000000C6C02080128000001000101048508102CD8020894D8020800000000086C020801280000010001018004324042
